{
    "contractName": "SmallStakeContract",
    "abi": [
        {
            "inputs": [],
            "payable": false,
            "stateMutability": "nonpayable",
            "type": "constructor"
        },
        {
            "payable": true,
            "stateMutability": "payable",
            "type": "fallback"
        },
        {
            "constant": false,
            "inputs": [
                {
                    "internalType": "uint16",
                    "name": "amount",
                    "type": "uint16"
                }
            ],
            "name": "adjustMinerFee",
            "outputs": [],
            "payable": false,
            "stateMutability": "nonpayable",
            "type": "function"
        },
        {
            "constant": false,
            "inputs": [
                {
                    "internalType": "uint16",
                    "name": "amount",
                    "type": "uint16"
                }
            ],
            "name": "adjustOwnerFee",
            "outputs": [],
            "payable": false,
            "stateMutability": "nonpayable",
            "type": "function"
        },
        {
            "constant": false,
            "inputs": [
                {
                    "internalType": "bool",
                    "name": "status",
                    "type": "bool"
                }
            ],
            "name": "changePoolStatus",
            "outputs": [],
            "payable": false,
            "stateMutability": "nonpayable",
            "type": "function"
        },
        {
            "constant": false,
            "inputs": [],
            "name": "lock",
            "outputs": [],
            "payable": false,
            "stateMutability": "nonpayable",
            "type": "function"
        },
        {
            "constant": true,
            "inputs": [],
            "name": "miner",
            "outputs": [
                {
                    "internalType": "address payable",
                    "name": "",
                    "type": "address"
                }
            ],
            "payable": false,
            "stateMutability": "view",
            "type": "function"
        },
        {
            "constant": true,
            "inputs": [],
            "name": "minerFee",
            "outputs": [
                {
                    "internalType": "uint16",
                    "name": "",
                    "type": "uint16"
                }
            ],
            "payable": false,
            "stateMutability": "view",
            "type": "function"
        },
        {
            "constant": true,
            "inputs": [],
            "name": "minerRewards",
            "outputs": [
                {
                    "internalType": "uint256",
                    "name": "",
                    "type": "uint256"
                }
            ],
            "payable": false,
            "stateMutability": "view",
            "type": "function"
        },
        {
            "constant": true,
            "inputs": [],
            "name": "owner",
            "outputs": [
                {
                    "internalType": "address payable",
                    "name": "",
                    "type": "address"
                }
            ],
            "payable": false,
            "stateMutability": "view",
            "type": "function"
        },
        {
            "constant": true,
            "inputs": [],
            "name": "ownerFee",
            "outputs": [
                {
                    "internalType": "uint16",
                    "name": "",
                    "type": "uint16"
                }
            ],
            "payable": false,
            "stateMutability": "view",
            "type": "function"
        },
        {
            "constant": true,
            "inputs": [],
            "name": "poolStakes",
            "outputs": [
                {
                    "internalType": "uint256",
                    "name": "",
                    "type": "uint256"
                }
            ],
            "payable": false,
            "stateMutability": "view",
            "type": "function"
        },
        {
            "constant": false,
            "inputs": [
                {
                    "internalType": "uint256",
                    "name": "amount",
                    "type": "uint256"
                }
            ],
            "name": "pushStakesToContract",
            "outputs": [],
            "payable": false,
            "stateMutability": "nonpayable",
            "type": "function"
        },
        {
            "constant": false,
            "inputs": [],
            "name": "unlock",
            "outputs": [],
            "payable": false,
            "stateMutability": "nonpayable",
            "type": "function"
        },
        {
            "constant": true,
            "inputs": [
                {
                    "internalType": "address",
                    "name": "",
                    "type": "address"
                }
            ],
            "name": "userRewards",
            "outputs": [
                {
                    "internalType": "uint256",
                    "name": "",
                    "type": "uint256"
                }
            ],
            "payable": false,
            "stateMutability": "view",
            "type": "function"
        },
        {
            "constant": true,
            "inputs": [
                {
                    "internalType": "address",
                    "name": "",
                    "type": "address"
                }
            ],
            "name": "userStakes",
            "outputs": [
                {
                    "internalType": "uint256",
                    "name": "",
                    "type": "uint256"
                }
            ],
            "payable": false,
            "stateMutability": "view",
            "type": "function"
        },
        {
            "constant": true,
            "inputs": [],
            "name": "withdrawAllStakesFromStakingContract",
            "outputs": [],
            "payable": false,
            "stateMutability": "view",
            "type": "function"
        },
        {
            "constant": false,
            "inputs": [
                {
                    "internalType": "uint256",
                    "name": "amount",
                    "type": "uint256"
                }
            ],
            "name": "withdrawStakesFromStakingContract",
            "outputs": [],
            "payable": false,
            "stateMutability": "nonpayable",
            "type": "function"
        },
        {
            "constant": true,
            "inputs": [],
            "name": "withdrawableTimeStamp",
            "outputs": [
                {
                    "internalType": "uint256",
                    "name": "",
                    "type": "uint256"
                }
            ],
            "payable": false,
            "stateMutability": "view",
            "type": "function"
        }
    ],
    "bytecode": "6080604052600180546001600160a01b0319908116737083ebaa81bdae6cd53b36589a699ac0b085677217909155600a805490911673514b43000000000000000000000000000000000117905534801561005857600080fd5b50600080546001600160a01b0319163017808255600a5460408051636c19e78360e01b81526001600160a01b03938416600482015290519190921692636c19e783926024808201939182900301818387803b1580156100b657600080fd5b505af11580156100ca573d6000803e3d6000fd5b50505050610885806100dd6000396000f3fe6080604052600436106100fe5760003560e01c80638da5cb5b11610095578063ade879b611610064578063ade879b61461036c578063b26f2b2d14610381578063d5b2a01a146103af578063d7329169146103c4578063f83d08ba146103ee576100fe565b80638da5cb5b146102e35780638da7ad23146102f8578063a0ca868e1461032b578063a69df4b514610357576100fe565b80635a2e9f77116100d15780635a2e9f7714610276578063703737991461028b5780637f448247146102a0578063857ce152146102b5576100fe565b8063064f459b146101aa5780630660f1e8146101d457806308ef621714610219578063349dc32914610245575b6000546001600160a01b031633141561011e57610119610403565b6101a8565b6005805462ff00001916620100001790553360009081526007602052604090205461018657600280546001810182556000919091527f405787fa12a823e0f2b7631cc41b3ba8828b3321ca811111fa75cd3aa3bb5ace0180546001600160a01b031916331790555b3360009081526007602052604090208054349081019091556006805490910190555b005b3480156101b657600080fd5b506101a8600480360360208110156101cd57600080fd5b5035610535565b3480156101e057600080fd5b50610207600480360360208110156101f757600080fd5b50356001600160a01b0316610592565b60408051918252519081900360200190f35b34801561022557600080fd5b506101a86004803603602081101561023c57600080fd5b503515156105a4565b34801561025157600080fd5b5061025a6105d7565b604080516001600160a01b039092168252519081900360200190f35b34801561028257600080fd5b506102076105ef565b34801561029757600080fd5b506101a86105f5565b3480156102ac57600080fd5b5061020761060e565b3480156102c157600080fd5b506101a8600480360360208110156102d857600080fd5b503561ffff16610614565b3480156102ef57600080fd5b5061025a610678565b34801561030457600080fd5b506102076004803603602081101561031b57600080fd5b50356001600160a01b0316610687565b34801561033757600080fd5b50610340610699565b6040805161ffff9092168252519081900360200190f35b34801561036357600080fd5b506101a86106a3565b34801561037857600080fd5b50610207610716565b34801561038d57600080fd5b506101a8600480360360208110156103a457600080fd5b503561ffff1661071c565b3480156103bb57600080fd5b5061034061075e565b3480156103d057600080fd5b506101a8600480360360208110156103e757600080fd5b5035610768565b3480156103fa57600080fd5b506101a86107ec565b6003546005546040516127103461ffff94851681028290049493909316909202919091049073dfe9a918b553d5bfa4aa6a1dba16d5286bf00fa1906108fc8415029084906000818181858888f19350505050158015610466573d6000803e3d6000fd5b506001546040516001600160a01b039091169082156108fc029083906000818181858888f193505050501580156104a1573d6000803e3d6000fd5b503482900360005b60025461ffff8216101561052f5760065433600090815260086020526040902054670de0b6b3a7640000918491816104dd57fe5b0402816104e657fe5b046008600060028461ffff16815481106104fc57fe5b60009182526020808320909101546001600160a01b031683528201929092526040019020805490910190556001016104a9565b50505050565b69d3c21bcecceda10000006006541161054d57600080fd5b60405173514b4300000000000000000000000000000000019082156108fc029083906000818181858888f1935050505015801561058e573d6000803e3d6000fd5b5050565b60086020526000908152604090205481565b6001546001600160a01b031633146105bb57600080fd5b60058054911515620100000262ff000019909216919091179055565b73dfe9a918b553d5bfa4aa6a1dba16d5286bf00fa181565b60065481565b6001546001600160a01b0316331461060c57600080fd5b565b60095481565b6001546001600160a01b031633148061064057503373dfe9a918b553d5bfa4aa6a1dba16d5286bf00fa1145b61064957600080fd5b600354610fa061ffff909116111561066057600080fd5b6003805461ffff191661ffff92909216919091179055565b6001546001600160a01b031681565b60076020526000908152604090205481565b60035461ffff1681565b600a60009054906101000a90046001600160a01b03166001600160a01b031663a69df4b56040518163ffffffff1660e01b8152600401600060405180830381600087803b1580156106f357600080fd5b505af1158015610707573d6000803e3d6000fd5b5050506203f480420160095550565b60045481565b6001546001600160a01b0316331461073357600080fd5b6101f48161ffff16111561074657600080fd5b6005805461ffff191661ffff92909216919091179055565b60055461ffff1681565b3360009081526007602052604090205481111561078457600080fd5b600a5460408051632e1a7d4d60e01b81526004810184905290516001600160a01b0390921691632e1a7d4d9160248082019260009290919082900301818387803b1580156107d157600080fd5b505af11580156107e5573d6000803e3d6000fd5b5050505050565b600a60009054906101000a90046001600160a01b03166001600160a01b031663f83d08ba6040518163ffffffff1660e01b8152600401600060405180830381600087803b15801561083c57600080fd5b505af115801561052f573d6000803e3d6000fdfea265627a7a723158205a57e2b86161792ac72dc728931d17992f47126afca5b135b85fd5a78c2bdd7e64736f6c63430005100032",
    "sourcePath": "c:/Users/Nico/Documents/GitHub/QuarkChainPOSWContract/contracts/SmallStakeContract.sol",
    "compiler": {
        "name": "solc",
        "version": "0.5.16+commit.9c3226ce"
    },
    "functionHashes": {
        "adjustMinerFee(uint16)": "857ce152",
        "adjustOwnerFee(uint16)": "b26f2b2d",
        "changePoolStatus(bool)": "08ef6217",
        "lock()": "f83d08ba",
        "miner()": "349dc329",
        "minerFee()": "a0ca868e",
        "minerRewards()": "ade879b6",
        "owner()": "8da5cb5b",
        "ownerFee()": "d5b2a01a",
        "poolStakes()": "5a2e9f77",
        "pushStakesToContract(uint256)": "064f459b",
        "unlock()": "a69df4b5",
        "userRewards(address)": "0660f1e8",
        "userStakes(address)": "8da7ad23",
        "withdrawAllStakesFromStakingContract()": "70373799",
        "withdrawStakesFromStakingContract(uint256)": "d7329169",
        "withdrawableTimeStamp()": "7f448247"
    },
    "gasEstimates": {
        "creation": {
            "codeDepositCost": "436200",
            "executionCost": "infinite",
            "totalCost": "infinite"
        },
        "external": {
            "": "infinite",
            "adjustMinerFee(uint16)": "22831",
            "adjustOwnerFee(uint16)": "21953",
            "changePoolStatus(bool)": "21953",
            "lock()": "infinite",
            "miner()": "309",
            "minerFee()": "1080",
            "minerRewards()": "1020",
            "owner()": "1060",
            "ownerFee()": "1079",
            "poolStakes()": "1021",
            "pushStakesToContract(uint256)": "infinite",
            "unlock()": "infinite",
            "userRewards(address)": "1170",
            "userStakes(address)": "1169",
            "withdrawAllStakesFromStakingContract()": "1029",
            "withdrawStakesFromStakingContract(uint256)": "infinite",
            "withdrawableTimeStamp()": "1065"
        },
        "internal": {
            "calculateRewards()": "infinite"
        }
    }
}