{
    "contractName": "ROIcalculator",
    "abi": [
        {
            "inputs": [
                {
                    "internalType": "address",
                    "name": "_stakingPool",
                    "type": "address"
                }
            ],
            "stateMutability": "nonpayable",
            "type": "constructor"
        },
        {
            "inputs": [
                {
                    "internalType": "uint16",
                    "name": "snapshotNumber",
                    "type": "uint16"
                }
            ],
            "name": "calculateROI",
            "outputs": [
                {
                    "internalType": "uint256",
                    "name": "",
                    "type": "uint256"
                }
            ],
            "stateMutability": "view",
            "type": "function"
        },
        {
            "inputs": [
                {
                    "internalType": "uint256",
                    "name": "",
                    "type": "uint256"
                }
            ],
            "name": "snapshotBalance",
            "outputs": [
                {
                    "internalType": "uint256",
                    "name": "",
                    "type": "uint256"
                }
            ],
            "stateMutability": "view",
            "type": "function"
        },
        {
            "inputs": [
                {
                    "internalType": "uint16",
                    "name": "snapshotNumber",
                    "type": "uint16"
                }
            ],
            "name": "takeNewSnapshot",
            "outputs": [],
            "stateMutability": "nonpayable",
            "type": "function"
        },
        {
            "inputs": [],
            "name": "timestamp1",
            "outputs": [
                {
                    "internalType": "uint256",
                    "name": "",
                    "type": "uint256"
                }
            ],
            "stateMutability": "view",
            "type": "function"
        },
        {
            "inputs": [],
            "name": "timestamp2",
            "outputs": [
                {
                    "internalType": "uint256",
                    "name": "",
                    "type": "uint256"
                }
            ],
            "stateMutability": "view",
            "type": "function"
        },
        {
            "inputs": [],
            "name": "timestamp3",
            "outputs": [
                {
                    "internalType": "uint256",
                    "name": "",
                    "type": "uint256"
                }
            ],
            "stateMutability": "view",
            "type": "function"
        }
    ],
    "bytecode": "608060405234801561001057600080fd5b506040516103403803806103408339818101604052602081101561003357600080fd5b5051600080546001600160a01b039092166001600160a01b03199092169190911790556102db806100656000396000f3fe608060405234801561001057600080fd5b50600436106100625760003560e01c8063010e08db146100675780635c970f691461008157806371e2dcda146100895780638b43653514610091578063c85700be146100b2578063e8efaf51146100cf575b600080fd5b61006f6100f2565b60408051918252519081900360200190f35b61006f6100f8565b61006f6100fe565b61006f600480360360208110156100a757600080fd5b503561ffff16610104565b61006f600480360360208110156100c857600080fd5b50356101d8565b6100f0600480360360208110156100e557600080fd5b503561ffff166101ea565b005b60015481565b60035481565b60025481565b600060038261ffff161115801561011f575060008261ffff16115b61012857600080fd5b6000805481906001600160a01b03163161ffff85166001141561015c57600154600081815260046020526040902054935091505b8461ffff166002141561018057600254600081815260046020526040902054935091505b8461ffff16600314156101a457600354600081815260046020526040902054935091505b603c8204603c42040361a8c00281848303678ac7230489e8000002816101c657fe5b04816101ce57fe5b0495945050505050565b60046020526000908152604090205481565b60038161ffff1611158015610203575060008161ffff16115b61020c57600080fd5b8061ffff166001141561023e57426001819055600080549181526004602052604090206001600160a01b039091163190555b8061ffff166002141561027057426002819055600080549181526004602052604090206001600160a01b039091163190555b8061ffff16600314156102a257426003819055600080549181526004602052604090206001600160a01b039091163190555b5056fea264697066735822122000beaffa12fbf0245259d61f76123b4d164f97209b8b22a5ffca7fcae0d9defa64736f6c63430007040033",
    "sourcePath": "c:/Users/Nico/Documents/GitHub/QuarkChainPOSWContract/contracts/SideChain/ROIcalculator.sol",
    "compiler": {
        "name": "solc",
        "version": "0.7.4+commit.3f05b770"
    },
    "functionHashes": {
        "calculateROI(uint16)": "8b436535",
        "snapshotBalance(uint256)": "c85700be",
        "takeNewSnapshot(uint16)": "e8efaf51",
        "timestamp1()": "010e08db",
        "timestamp2()": "71e2dcda",
        "timestamp3()": "5c970f69"
    },
    "gasEstimates": {
        "creation": {
            "codeDepositCost": "146200",
            "executionCost": "infinite",
            "totalCost": "infinite"
        },
        "external": {
            "calculateROI(uint16)": "7140",
            "snapshotBalance(uint256)": "1172",
            "takeNewSnapshot(uint16)": "125277",
            "timestamp1()": "976",
            "timestamp2()": "1020",
            "timestamp3()": "998"
        }
    }
}