{
    "contractName": "ROIcalculator",
    "abi": [
        {
            "inputs": [],
            "stateMutability": "nonpayable",
            "type": "constructor"
        },
        {
            "inputs": [
                {
                    "internalType": "uint16",
                    "name": "snapshotNumber",
                    "type": "uint16"
                }
            ],
            "name": "calculateROI",
            "outputs": [
                {
                    "internalType": "uint256",
                    "name": "",
                    "type": "uint256"
                }
            ],
            "stateMutability": "view",
            "type": "function"
        },
        {
            "inputs": [
                {
                    "internalType": "uint256",
                    "name": "",
                    "type": "uint256"
                }
            ],
            "name": "snapshotBalance",
            "outputs": [
                {
                    "internalType": "uint256",
                    "name": "",
                    "type": "uint256"
                }
            ],
            "stateMutability": "view",
            "type": "function"
        },
        {
            "inputs": [
                {
                    "internalType": "uint16",
                    "name": "snapshotNumber",
                    "type": "uint16"
                }
            ],
            "name": "takeNewSnapshot",
            "outputs": [],
            "stateMutability": "nonpayable",
            "type": "function"
        },
        {
            "inputs": [],
            "name": "timestamp1",
            "outputs": [
                {
                    "internalType": "uint256",
                    "name": "",
                    "type": "uint256"
                }
            ],
            "stateMutability": "view",
            "type": "function"
        },
        {
            "inputs": [],
            "name": "timestamp2",
            "outputs": [
                {
                    "internalType": "uint256",
                    "name": "",
                    "type": "uint256"
                }
            ],
            "stateMutability": "view",
            "type": "function"
        },
        {
            "inputs": [],
            "name": "timestamp3",
            "outputs": [
                {
                    "internalType": "uint256",
                    "name": "",
                    "type": "uint256"
                }
            ],
            "stateMutability": "view",
            "type": "function"
        }
    ],
    "bytecode": "608060405234801561001057600080fd5b50600080546001600160a01b0319167394f151bbd12854f93cf92c882b88e3790f407956179055610337806100466000396000f3fe608060405234801561001057600080fd5b50600436106100625760003560e01c8063010e08db146100675780635c970f691461008157806371e2dcda146100895780638b43653514610091578063c85700be146100b2578063e8efaf51146100cf575b600080fd5b61006f6100f2565b60408051918252519081900360200190f35b61006f6100f8565b61006f6100fe565b61006f600480360360208110156100a757600080fd5b503561ffff16610104565b61006f600480360360208110156100c857600080fd5b50356101e5565b6100f0600480360360208110156100e557600080fd5b503561ffff166101f7565b005b60015481565b60035481565b60025481565b600060038261ffff161115801561011f575060008261ffff16115b61012857600080fd5b6000805481906001600160a01b03163161ffff85166001141561015c57600154600081815260046020526040902054935091505b8461ffff166002141561018057600254600081815260046020526040902054935091505b8461ffff16600314156101a457600354600081815260046020526040902054935091505b6101dc62278d006101d06101b842866102b2565b6101d68581670de0b6b3a76400006101d0838c6102b2565b906102c9565b906102ee565b95945050505050565b60046020526000908152604090205481565b60038161ffff1611158015610210575060008161ffff16115b61021957600080fd5b8061ffff166001141561024b57426001819055600080549181526004602052604090206001600160a01b039091163190555b8061ffff166002141561027d57426002819055600080549181526004602052604090206001600160a01b039091163190555b8061ffff16600314156102af57426003819055600080549181526004602052604090206001600160a01b039091163190555b50565b6000828211156102be57fe5b508082035b92915050565b6000826102d8575060006102c3565b50818102818382816102e657fe5b04146102c357fe5b60008183816102f957fe5b04939250505056fea2646970667358221220e1ec0f29f4412fcb6cdb31abc2e43e40161812784a7446cdddef094ff222c15f64736f6c63430007040033",
    "sourcePath": "c:/Users/Nico/Documents/GitHub/QuarkChainPOSWContract/contracts/SideChain/ROIcalculator.sol",
    "compiler": {
        "name": "solc",
        "version": "0.7.4+commit.3f05b770"
    },
    "functionHashes": {
        "calculateROI(uint16)": "8b436535",
        "snapshotBalance(uint256)": "c85700be",
        "takeNewSnapshot(uint16)": "e8efaf51",
        "timestamp1()": "010e08db",
        "timestamp2()": "71e2dcda",
        "timestamp3()": "5c970f69"
    },
    "gasEstimates": {
        "creation": {
            "codeDepositCost": "164600",
            "executionCost": "21044",
            "totalCost": "185644"
        },
        "external": {
            "calculateROI(uint16)": "infinite",
            "snapshotBalance(uint256)": "1172",
            "takeNewSnapshot(uint16)": "125277",
            "timestamp1()": "976",
            "timestamp2()": "1020",
            "timestamp3()": "998"
        }
    }
}