{
    "contractName": "SideChainSmallStakeContract",
    "abi": [
        {
            "inputs": [],
            "stateMutability": "nonpayable",
            "type": "constructor"
        },
        {
            "inputs": [
                {
                    "internalType": "uint256",
                    "name": "_minStake",
                    "type": "uint256"
                }
            ],
            "name": "adjustMinStake",
            "outputs": [],
            "stateMutability": "nonpayable",
            "type": "function"
        },
        {
            "inputs": [
                {
                    "internalType": "uint16",
                    "name": "amount",
                    "type": "uint16"
                }
            ],
            "name": "adjustMinerFee",
            "outputs": [],
            "stateMutability": "nonpayable",
            "type": "function"
        },
        {
            "inputs": [
                {
                    "internalType": "uint16",
                    "name": "amount",
                    "type": "uint16"
                }
            ],
            "name": "adjustPoolFee",
            "outputs": [],
            "stateMutability": "nonpayable",
            "type": "function"
        },
        {
            "inputs": [
                {
                    "internalType": "address payable",
                    "name": "_miner",
                    "type": "address"
                }
            ],
            "name": "changeMiner",
            "outputs": [],
            "stateMutability": "nonpayable",
            "type": "function"
        },
        {
            "inputs": [
                {
                    "internalType": "bool",
                    "name": "status",
                    "type": "bool"
                }
            ],
            "name": "changePoolStatus",
            "outputs": [],
            "stateMutability": "nonpayable",
            "type": "function"
        },
        {
            "inputs": [],
            "name": "flushContract",
            "outputs": [],
            "stateMutability": "nonpayable",
            "type": "function"
        },
        {
            "inputs": [
                {
                    "internalType": "address",
                    "name": "staker",
                    "type": "address"
                }
            ],
            "name": "getStakesWithRewards",
            "outputs": [
                {
                    "internalType": "uint256",
                    "name": "",
                    "type": "uint256"
                }
            ],
            "stateMutability": "view",
            "type": "function"
        },
        {
            "inputs": [],
            "name": "isClosed",
            "outputs": [
                {
                    "internalType": "bool",
                    "name": "",
                    "type": "bool"
                }
            ],
            "stateMutability": "view",
            "type": "function"
        },
        {
            "inputs": [],
            "name": "minStake",
            "outputs": [
                {
                    "internalType": "uint256",
                    "name": "",
                    "type": "uint256"
                }
            ],
            "stateMutability": "view",
            "type": "function"
        },
        {
            "inputs": [],
            "name": "miner",
            "outputs": [
                {
                    "internalType": "address payable",
                    "name": "",
                    "type": "address"
                }
            ],
            "stateMutability": "view",
            "type": "function"
        },
        {
            "inputs": [],
            "name": "minerFee",
            "outputs": [
                {
                    "internalType": "uint16",
                    "name": "",
                    "type": "uint16"
                }
            ],
            "stateMutability": "view",
            "type": "function"
        },
        {
            "inputs": [],
            "name": "owner",
            "outputs": [
                {
                    "internalType": "address payable",
                    "name": "",
                    "type": "address"
                }
            ],
            "stateMutability": "view",
            "type": "function"
        },
        {
            "inputs": [],
            "name": "poolFee",
            "outputs": [
                {
                    "internalType": "uint16",
                    "name": "",
                    "type": "uint16"
                }
            ],
            "stateMutability": "view",
            "type": "function"
        },
        {
            "inputs": [],
            "name": "totalStakes",
            "outputs": [
                {
                    "internalType": "uint256",
                    "name": "",
                    "type": "uint256"
                }
            ],
            "stateMutability": "view",
            "type": "function"
        },
        {
            "inputs": [
                {
                    "internalType": "uint256",
                    "name": "amount",
                    "type": "uint256"
                }
            ],
            "name": "withdrawStakes",
            "outputs": [],
            "stateMutability": "nonpayable",
            "type": "function"
        },
        {
            "stateMutability": "payable",
            "type": "receive"
        }
    ],
    "bytecode": "6080604052600080546001600160a01b03191673dfe9a918b553d5bfa4aa6a1dba16d5286bf00fa117905534801561003657600080fd5b50600180546001600160a01b03199081163390811783556002805480850182557f405787fa12a823e0f2b7631cc41b3ba8828b3321ca811111fa75cd3aa3bb5ace908101805485169093179092556000805482548087019093559190920180549093166001600160a01b03918216179092558054909116815260036020526040902055610c11806100c86000396000f3fe6080604052600436106100ec5760003560e01c8063857ce1521161008a578063c2b6b58c11610059578063c2b6b58c146103e7578063cd87599214610410578063cff42dfe14610425578063f73336001461045857610241565b8063857ce1521461037a5780638da5cb5b146103a8578063a0ca868e146103bd578063bf9befb1146103d257610241565b8063349dc329116100c6578063349dc329146102ce578063375b3c0a146102ff578063410390ec146103265780634c85825d1461035057610241565b8063089fe6aa1461024657806308ef6217146102725780632f6c0cb5146102a057610241565b3661024157600154600160c01b900460ff1615610141576040805162461bcd60e51b815260206004820152600e60248201526d141bdbdb081a5cc818db1bdcd95960921b604482015290519081900360640190fd5b61014961048b565b600260008154811061015757fe5b6000918252602090912001546001600160a01b0316331461021e57600260018154811061018057fe5b6000918252602090912001546001600160a01b0316331461021e573360009081526006602052604090205461021e576004543410156101be57600080fd5b600280546001818101835560008390527f405787fa12a823e0f2b7631cc41b3ba8828b3321ca811111fa75cd3aa3bb5ace90910180546001600160a01b03191633179055905461020d9161061e565b336000908152600360205260409020555b336000908152600660205260409020805434908101909155600580549091019055005b600080fd5b34801561025257600080fd5b5061025b610635565b6040805161ffff9092168252519081900360200190f35b34801561027e57600080fd5b5061029e6004803603602081101561029557600080fd5b50351515610646565b005b3480156102ac57600080fd5b5061029e600480360360208110156102c357600080fd5b503561ffff1661067b565b3480156102da57600080fd5b506102e36106cf565b604080516001600160a01b039092168252519081900360200190f35b34801561030b57600080fd5b506103146106de565b60408051918252519081900360200190f35b34801561033257600080fd5b5061029e6004803603602081101561034957600080fd5b50356106e4565b34801561035c57600080fd5b5061029e6004803603602081101561037357600080fd5b503561080a565b34801561038657600080fd5b5061029e6004803603602081101561039d57600080fd5b503561ffff16610826565b3480156103b457600080fd5b506102e361088f565b3480156103c957600080fd5b5061025b61089e565b3480156103de57600080fd5b506103146108af565b3480156103f357600080fd5b506103fc6108b5565b604080519115158252519081900360200190f35b34801561041c57600080fd5b5061029e6108c5565b34801561043157600080fd5b506103146004803603602081101561044857600080fd5b50356001600160a01b0316610a10565b34801561046457600080fd5b5061029e6004803603602081101561047b57600080fd5b50356001600160a01b0316610b5d565b60055430906000906104a8906104a284313461061e565b9061061e565b111561061b576005546000906104cc906104a26001600160a01b038516313461061e565b6001549091506000906104f990612710906104f3908590600160a01b900461ffff16610b96565b90610bbb565b60015490915060009061052090612710906104f3908690600160b01b900461ffff16610b96565b90506000610532826104a2868661061e565b905060005b60025461ffff821610156105dd5760006105916005546104f36006600060028761ffff168154811061056557fe5b60009182526020808320909101546001600160a01b031683528201929092526040019020548690610b96565b9050806006600060028561ffff16815481106105a957fe5b60009182526020808320909101546001600160a01b0316835282019290925260400190208054909101905550600101610537565b505060058054909301909255600080546001600160a01b03908116825260066020526040808320805490940190935560015416815220805490910190555b50565b60008282111561062a57fe5b508082035b92915050565b600154600160b01b900461ffff1681565b6001546001600160a01b0316331461065d57600080fd5b60018054911515600160c01b0260ff60c01b19909216919091179055565b6001546001600160a01b0316331461069257600080fd5b6101f48161ffff1611156106a557600080fd5b6106ad61048b565b6001805461ffff909216600160b01b0261ffff60b01b19909216919091179055565b6000546001600160a01b031681565b60045481565b806106ee33610a10565b10156106f957600080fd5b61070161048b565b3360009081526006602052604090205481111561071d57600080fd5b604051339082156108fc029083906000818181858888f1935050505015801561074a573d6000803e3d6000fd5b50336000908152600660205260408120805483900390556005805483900390556002805490919061077757fe5b6000918252602090912001546001600160a01b0316331461061b5760026001815481106107a057fe5b6000918252602090912001546001600160a01b0316331461061b573360009081526006602052604090205461061b57336000908152600360205260409020546002805490919081106107ee57fe5b600091825260209091200180546001600160a01b031916905550565b6001546001600160a01b0316331461082157600080fd5b600455565b6001546001600160a01b031633148061084957506000546001600160a01b031633145b61085257600080fd5b610fa08161ffff16111561086557600080fd5b61086d61048b565b6001805461ffff909216600160a01b0261ffff60a01b19909216919091179055565b6001546001600160a01b031681565b600154600160a01b900461ffff1681565b60055481565b600154600160c01b900460ff1681565b6001546001600160a01b031633146108dc57600080fd5b6108e461048b565b60005b60025461ffff821610156109f55760028161ffff168154811061090657fe5b6000918252602082200154600280546001600160a01b03909216926108fc926006929061ffff871690811061093757fe5b60009182526020808320909101546001600160a01b03168352820192909252604090810182205490518115909302929091818181858888f19350505050158015610985573d6000803e3d6000fd5b5060006006600060028461ffff168154811061099d57fe5b60009182526020808320909101546001600160a01b031683528201929092526040019020556002805461ffff83169081106109d457fe5b600091825260209091200180546001600160a01b03191690556001016108e7565b5060006005556001805460ff60c01b1916600160c01b179055565b6005546000903090610a26576000915050610b58565b6000610a47600554836001600160a01b03163161061e90919063ffffffff16565b600154909150600090610a8a90610a8390612710906104f3908690600160a01b810461ffff908116600160b01b90920481169190910116610b96565b839061061e565b6005546001600160a01b03871660009081526006602052604081205492935091610ab991906104f39085610b96565b6001549091506001600160a01b0387811691161415610af557600154610af390612710906104f3908690600160b01b900461ffff16610b96565b015b6000546001600160a01b0387811691161415610b2e57600154610b2c90612710906104f3908690600160a01b900461ffff16610b96565b015b6001600160a01b038616600090815260066020526040902054610b519082610bce565b9450505050505b919050565b6000546001600160a01b03163314610b7457600080fd5b600080546001600160a01b0319166001600160a01b0392909216919091179055565b600082610ba55750600061062f565b5081810281838281610bb357fe5b041461062f57fe5b6000818381610bc657fe5b049392505050565b8181018281101561062f57fefea2646970667358221220480aef39bafb9c99b02814584a54da633baeb2382cb859e307843c7db173c45364736f6c63430007040033",
    "sourcePath": "c:/Users/Nico/Documents/GitHub/QuarkChainPOSWContract/contracts/SideChain/SideChainSmallStakeContract.sol",
    "compiler": {
        "name": "solc",
        "version": "0.7.4+commit.3f05b770"
    },
    "functionHashes": {
        "adjustMinStake(uint256)": "4c85825d",
        "adjustMinerFee(uint16)": "857ce152",
        "adjustPoolFee(uint16)": "2f6c0cb5",
        "changeMiner(address)": "f7333600",
        "changePoolStatus(bool)": "08ef6217",
        "flushContract()": "cd875992",
        "getStakesWithRewards(address)": "cff42dfe",
        "isClosed()": "c2b6b58c",
        "minStake()": "375b3c0a",
        "miner()": "349dc329",
        "minerFee()": "a0ca868e",
        "owner()": "8da5cb5b",
        "poolFee()": "089fe6aa",
        "totalStakes()": "bf9befb1",
        "withdrawStakes(uint256)": "410390ec"
    },
    "gasEstimates": {
        "creation": {
            "codeDepositCost": "617800",
            "executionCost": "147344",
            "totalCost": "765144"
        },
        "external": {
            "adjustMinStake(uint256)": "21118",
            "adjustMinerFee(uint16)": "infinite",
            "adjustPoolFee(uint16)": "infinite",
            "changeMiner(address)": "22001",
            "changePoolStatus(bool)": "21943",
            "flushContract()": "infinite",
            "getStakesWithRewards(address)": "infinite",
            "isClosed()": "1049",
            "minStake()": "1043",
            "miner()": "1060",
            "minerFee()": "1097",
            "owner()": "1082",
            "poolFee()": "1054",
            "totalStakes()": "1087",
            "withdrawStakes(uint256)": "infinite"
        },
        "internal": {
            "calculateRewards()": "infinite"
        }
    }
}