{
    "contractName": "SideChainSmallStakeContract",
    "abi": [
        {
            "inputs": [],
            "stateMutability": "nonpayable",
            "type": "constructor"
        },
        {
            "inputs": [
                {
                    "internalType": "uint256",
                    "name": "_minStake",
                    "type": "uint256"
                }
            ],
            "name": "adjustMinStake",
            "outputs": [],
            "stateMutability": "nonpayable",
            "type": "function"
        },
        {
            "inputs": [
                {
                    "internalType": "uint16",
                    "name": "amount",
                    "type": "uint16"
                }
            ],
            "name": "adjustMinerFee",
            "outputs": [],
            "stateMutability": "nonpayable",
            "type": "function"
        },
        {
            "inputs": [
                {
                    "internalType": "uint16",
                    "name": "amount",
                    "type": "uint16"
                }
            ],
            "name": "adjustPoolFee",
            "outputs": [],
            "stateMutability": "nonpayable",
            "type": "function"
        },
        {
            "inputs": [
                {
                    "internalType": "address payable",
                    "name": "_miner",
                    "type": "address"
                }
            ],
            "name": "changeMiner",
            "outputs": [],
            "stateMutability": "nonpayable",
            "type": "function"
        },
        {
            "inputs": [
                {
                    "internalType": "bool",
                    "name": "status",
                    "type": "bool"
                }
            ],
            "name": "changePoolStatus",
            "outputs": [],
            "stateMutability": "nonpayable",
            "type": "function"
        },
        {
            "inputs": [],
            "name": "flushContract",
            "outputs": [],
            "stateMutability": "nonpayable",
            "type": "function"
        },
        {
            "inputs": [],
            "name": "getROI",
            "outputs": [
                {
                    "internalType": "uint256",
                    "name": "",
                    "type": "uint256"
                }
            ],
            "stateMutability": "view",
            "type": "function"
        },
        {
            "inputs": [
                {
                    "internalType": "address",
                    "name": "staker",
                    "type": "address"
                }
            ],
            "name": "getStakesWithRewards",
            "outputs": [
                {
                    "internalType": "uint256",
                    "name": "",
                    "type": "uint256"
                }
            ],
            "stateMutability": "view",
            "type": "function"
        },
        {
            "inputs": [],
            "name": "isClosed",
            "outputs": [
                {
                    "internalType": "bool",
                    "name": "",
                    "type": "bool"
                }
            ],
            "stateMutability": "view",
            "type": "function"
        },
        {
            "inputs": [],
            "name": "minStake",
            "outputs": [
                {
                    "internalType": "uint256",
                    "name": "",
                    "type": "uint256"
                }
            ],
            "stateMutability": "view",
            "type": "function"
        },
        {
            "inputs": [],
            "name": "miner",
            "outputs": [
                {
                    "internalType": "address payable",
                    "name": "",
                    "type": "address"
                }
            ],
            "stateMutability": "view",
            "type": "function"
        },
        {
            "inputs": [],
            "name": "minerFee",
            "outputs": [
                {
                    "internalType": "uint16",
                    "name": "",
                    "type": "uint16"
                }
            ],
            "stateMutability": "view",
            "type": "function"
        },
        {
            "inputs": [],
            "name": "owner",
            "outputs": [
                {
                    "internalType": "address payable",
                    "name": "",
                    "type": "address"
                }
            ],
            "stateMutability": "view",
            "type": "function"
        },
        {
            "inputs": [],
            "name": "poolFee",
            "outputs": [
                {
                    "internalType": "uint16",
                    "name": "",
                    "type": "uint16"
                }
            ],
            "stateMutability": "view",
            "type": "function"
        },
        {
            "inputs": [],
            "name": "snapshotBalance",
            "outputs": [
                {
                    "internalType": "uint256",
                    "name": "",
                    "type": "uint256"
                }
            ],
            "stateMutability": "view",
            "type": "function"
        },
        {
            "inputs": [],
            "name": "snapshotTimestamp",
            "outputs": [
                {
                    "internalType": "uint256",
                    "name": "",
                    "type": "uint256"
                }
            ],
            "stateMutability": "view",
            "type": "function"
        },
        {
            "inputs": [],
            "name": "totalStakes",
            "outputs": [
                {
                    "internalType": "uint256",
                    "name": "",
                    "type": "uint256"
                }
            ],
            "stateMutability": "view",
            "type": "function"
        },
        {
            "inputs": [
                {
                    "internalType": "uint256",
                    "name": "amount",
                    "type": "uint256"
                }
            ],
            "name": "withdrawStakes",
            "outputs": [],
            "stateMutability": "nonpayable",
            "type": "function"
        },
        {
            "stateMutability": "payable",
            "type": "receive"
        }
    ],
    "bytecode": "608060405234801561001057600080fd5b50600180546001600160a01b03199081163390811783556002805480850182557f405787fa12a823e0f2b7631cc41b3ba8828b3321ca811111fa75cd3aa3bb5ace908101805485169093179092556000805482548087019093559190920180549093166001600160a01b03918216179092558054909116815260036020526040902055610cda806100a26000396000f3fe60806040526004361061010d5760003560e01c80638da5cb5b11610095578063bf9befb111610064578063bf9befb114610432578063c2b6b58c14610447578063cd87599214610470578063cff42dfe14610485578063f7333600146104b857610262565b80638da5cb5b146103de5780639c43eb54146103f3578063a0ca868e14610408578063a991c9b51461041d57610262565b8063349dc329116100dc578063349dc32914610316578063375b3c0a14610347578063410390ec1461035c5780634c85825d14610386578063857ce152146103b057610262565b8063089fe6aa1461026757806308ef621714610293578063269d7b05146102c15780632f6c0cb5146102e857610262565b3661026257600154600160c01b900460ff1615610162576040805162461bcd60e51b815260206004820152600e60248201526d141bdbdb081a5cc818db1bdcd95960921b604482015290519081900360640190fd5b61016a6104eb565b600260008154811061017857fe5b6000918252602090912001546001600160a01b0316331461023f5760026001815481106101a157fe5b6000918252602090912001546001600160a01b0316331461023f573360009081526006602052604090205461023f576004543410156101df57600080fd5b600280546001818101835560008390527f405787fa12a823e0f2b7631cc41b3ba8828b3321ca811111fa75cd3aa3bb5ace90910180546001600160a01b03191633179055905461022e91610686565b336000908152600360205260409020555b336000908152600660205260409020805434908101909155600580549091019055005b600080fd5b34801561027357600080fd5b5061027c61069d565b6040805161ffff9092168252519081900360200190f35b34801561029f57600080fd5b506102bf600480360360208110156102b657600080fd5b503515156106ae565b005b3480156102cd57600080fd5b506102d66106e3565b60408051918252519081900360200190f35b3480156102f457600080fd5b506102bf6004803603602081101561030b57600080fd5b503561ffff16610738565b34801561032257600080fd5b5061032b61078c565b604080516001600160a01b039092168252519081900360200190f35b34801561035357600080fd5b506102d661079b565b34801561036857600080fd5b506102bf6004803603602081101561037f57600080fd5b50356107a1565b34801561039257600080fd5b506102bf600480360360208110156103a957600080fd5b50356108c7565b3480156103bc57600080fd5b506102bf600480360360208110156103d357600080fd5b503561ffff166108e3565b3480156103ea57600080fd5b5061032b61094c565b3480156103ff57600080fd5b506102d661095b565b34801561041457600080fd5b5061027c610961565b34801561042957600080fd5b506102d6610972565b34801561043e57600080fd5b506102d6610978565b34801561045357600080fd5b5061045c61097e565b604080519115158252519081900360200190f35b34801561047c57600080fd5b506102bf61098e565b34801561049157600080fd5b506102d6600480360360208110156104a857600080fd5b50356001600160a01b0316610ad9565b3480156104c457600080fd5b506102bf600480360360208110156104db57600080fd5b50356001600160a01b0316610c26565b308031600855426007556005546000906105109061050a843134610686565b90610686565b1115610683576005546000906105349061050a6001600160a01b0385163134610686565b600154909150600090610561906127109061055b908590600160a01b900461ffff16610c5f565b90610c84565b600154909150600090610588906127109061055b908690600160b01b900461ffff16610c5f565b9050600061059a8261050a8686610686565b905060005b60025461ffff821610156106455760006105f960055461055b6006600060028761ffff16815481106105cd57fe5b60009182526020808320909101546001600160a01b031683528201929092526040019020548690610c5f565b9050806006600060028561ffff168154811061061157fe5b60009182526020808320909101546001600160a01b031683528201929092526040019020805490910190555060010161059f565b505060058054909301909255600080546001600160a01b03908116825260066020526040808320805490940190935560015416815220805490910190555b50565b60008282111561069257fe5b508082035b92915050565b600154600160b01b900461ffff1681565b6001546001600160a01b031633146106c557600080fd5b60018054911515600160c01b0260ff60c01b19909216919091179055565b60075460009030908131906107319062278d009061072b90610706904290610686565b61055b8561055b670de0b6b3a764000061072b6008548a61068690919063ffffffff16565b90610c5f565b9250505090565b6001546001600160a01b0316331461074f57600080fd5b6101f48161ffff16111561076257600080fd5b61076a6104eb565b6001805461ffff909216600160b01b0261ffff60b01b19909216919091179055565b6000546001600160a01b031681565b60045481565b806107ab33610ad9565b10156107b657600080fd5b6107be6104eb565b336000908152600660205260409020548111156107da57600080fd5b604051339082156108fc029083906000818181858888f19350505050158015610807573d6000803e3d6000fd5b50336000908152600660205260408120805483900390556005805483900390556002805490919061083457fe5b6000918252602090912001546001600160a01b0316331461068357600260018154811061085d57fe5b6000918252602090912001546001600160a01b03163314610683573360009081526006602052604090205461068357336000908152600360205260409020546002805490919081106108ab57fe5b600091825260209091200180546001600160a01b031916905550565b6001546001600160a01b031633146108de57600080fd5b600455565b6001546001600160a01b031633148061090657506000546001600160a01b031633145b61090f57600080fd5b6123288161ffff16111561092257600080fd5b61092a6104eb565b6001805461ffff909216600160a01b0261ffff60a01b19909216919091179055565b6001546001600160a01b031681565b60075481565b600154600160a01b900461ffff1681565b60085481565b60055481565b600154600160c01b900460ff1681565b6001546001600160a01b031633146109a557600080fd5b6109ad6104eb565b60005b60025461ffff82161015610abe5760028161ffff16815481106109cf57fe5b6000918252602082200154600280546001600160a01b03909216926108fc926006929061ffff8716908110610a0057fe5b60009182526020808320909101546001600160a01b03168352820192909252604090810182205490518115909302929091818181858888f19350505050158015610a4e573d6000803e3d6000fd5b5060006006600060028461ffff1681548110610a6657fe5b60009182526020808320909101546001600160a01b031683528201929092526040019020556002805461ffff8316908110610a9d57fe5b600091825260209091200180546001600160a01b03191690556001016109b0565b5060006005556001805460ff60c01b1916600160c01b179055565b6005546000903090610aef576000915050610c21565b6000610b10600554836001600160a01b03163161068690919063ffffffff16565b600154909150600090610b5390610b4c906127109061055b908690600160a01b810461ffff908116600160b01b90920481169190910116610c5f565b8390610686565b6005546001600160a01b03871660009081526006602052604081205492935091610b82919061055b9085610c5f565b6001549091506001600160a01b0387811691161415610bbe57600154610bbc906127109061055b908690600160b01b900461ffff16610c5f565b015b6000546001600160a01b0387811691161415610bf757600154610bf5906127109061055b908690600160a01b900461ffff16610c5f565b015b6001600160a01b038616600090815260066020526040902054610c1a9082610c97565b9450505050505b919050565b6000546001600160a01b03163314610c3d57600080fd5b600080546001600160a01b0319166001600160a01b0392909216919091179055565b600082610c6e57506000610697565b5081810281838281610c7c57fe5b041461069757fe5b6000818381610c8f57fe5b049392505050565b8181018281101561069757fefea264697066735822122040cfd4176611c7014f8576dee994aba1a3888f3333b7f10cb016839d6b248b7d64736f6c63430007040033",
    "sourcePath": "c:/Users/Nico/Documents/GitHub/QuarkChainPOSWContract/contracts/SideChain/SideChainSmallStakeContract.sol",
    "compiler": {
        "name": "solc",
        "version": "0.7.4+commit.3f05b770"
    },
    "functionHashes": {
        "adjustMinStake(uint256)": "4c85825d",
        "adjustMinerFee(uint16)": "857ce152",
        "adjustPoolFee(uint16)": "2f6c0cb5",
        "changeMiner(address)": "f7333600",
        "changePoolStatus(bool)": "08ef6217",
        "flushContract()": "cd875992",
        "getROI()": "269d7b05",
        "getStakesWithRewards(address)": "cff42dfe",
        "isClosed()": "c2b6b58c",
        "minStake()": "375b3c0a",
        "miner()": "349dc329",
        "minerFee()": "a0ca868e",
        "owner()": "8da5cb5b",
        "poolFee()": "089fe6aa",
        "snapshotBalance()": "a991c9b5",
        "snapshotTimestamp()": "9c43eb54",
        "totalStakes()": "bf9befb1",
        "withdrawStakes(uint256)": "410390ec"
    },
    "gasEstimates": {
        "creation": {
            "codeDepositCost": "658000",
            "executionCost": "126546",
            "totalCost": "784546"
        },
        "external": {
            "adjustMinStake(uint256)": "21118",
            "adjustMinerFee(uint16)": "infinite",
            "adjustPoolFee(uint16)": "infinite",
            "changeMiner(address)": "22023",
            "changePoolStatus(bool)": "21943",
            "flushContract()": "infinite",
            "getROI()": "infinite",
            "getStakesWithRewards(address)": "infinite",
            "isClosed()": "1071",
            "minStake()": "1043",
            "miner()": "1060",
            "minerFee()": "1097",
            "owner()": "1060",
            "poolFee()": "1054",
            "snapshotBalance()": "1087",
            "snapshotTimestamp()": "1043",
            "totalStakes()": "1020",
            "withdrawStakes(uint256)": "infinite"
        },
        "internal": {
            "calculateRewards()": "infinite"
        }
    }
}