{
    "contractName": "SideChainSmallStakeContract",
    "abi": [
        {
            "inputs": [],
            "stateMutability": "nonpayable",
            "type": "constructor"
        },
        {
            "inputs": [
                {
                    "internalType": "uint256",
                    "name": "_minStake",
                    "type": "uint256"
                }
            ],
            "name": "adjustMinStake",
            "outputs": [],
            "stateMutability": "nonpayable",
            "type": "function"
        },
        {
            "inputs": [
                {
                    "internalType": "uint16",
                    "name": "amount",
                    "type": "uint16"
                }
            ],
            "name": "adjustMinerFee",
            "outputs": [],
            "stateMutability": "nonpayable",
            "type": "function"
        },
        {
            "inputs": [
                {
                    "internalType": "uint16",
                    "name": "amount",
                    "type": "uint16"
                }
            ],
            "name": "adjustPoolFee",
            "outputs": [],
            "stateMutability": "nonpayable",
            "type": "function"
        },
        {
            "inputs": [
                {
                    "internalType": "address payable",
                    "name": "_miner",
                    "type": "address"
                }
            ],
            "name": "changeMiner",
            "outputs": [],
            "stateMutability": "nonpayable",
            "type": "function"
        },
        {
            "inputs": [
                {
                    "internalType": "bool",
                    "name": "status",
                    "type": "bool"
                }
            ],
            "name": "changePoolStatus",
            "outputs": [],
            "stateMutability": "nonpayable",
            "type": "function"
        },
        {
            "inputs": [],
            "name": "flushContract",
            "outputs": [],
            "stateMutability": "nonpayable",
            "type": "function"
        },
        {
            "inputs": [
                {
                    "internalType": "address",
                    "name": "staker",
                    "type": "address"
                }
            ],
            "name": "getStakesWithRewards",
            "outputs": [
                {
                    "internalType": "uint256",
                    "name": "",
                    "type": "uint256"
                }
            ],
            "stateMutability": "view",
            "type": "function"
        },
        {
            "inputs": [],
            "name": "isClosed",
            "outputs": [
                {
                    "internalType": "bool",
                    "name": "",
                    "type": "bool"
                }
            ],
            "stateMutability": "view",
            "type": "function"
        },
        {
            "inputs": [],
            "name": "minStake",
            "outputs": [
                {
                    "internalType": "uint256",
                    "name": "",
                    "type": "uint256"
                }
            ],
            "stateMutability": "view",
            "type": "function"
        },
        {
            "inputs": [],
            "name": "miner",
            "outputs": [
                {
                    "internalType": "address payable",
                    "name": "",
                    "type": "address"
                }
            ],
            "stateMutability": "view",
            "type": "function"
        },
        {
            "inputs": [],
            "name": "minerFee",
            "outputs": [
                {
                    "internalType": "uint16",
                    "name": "",
                    "type": "uint16"
                }
            ],
            "stateMutability": "view",
            "type": "function"
        },
        {
            "inputs": [],
            "name": "owner",
            "outputs": [
                {
                    "internalType": "address payable",
                    "name": "",
                    "type": "address"
                }
            ],
            "stateMutability": "view",
            "type": "function"
        },
        {
            "inputs": [],
            "name": "poolFee",
            "outputs": [
                {
                    "internalType": "uint16",
                    "name": "",
                    "type": "uint16"
                }
            ],
            "stateMutability": "view",
            "type": "function"
        },
        {
            "inputs": [],
            "name": "totalStakes",
            "outputs": [
                {
                    "internalType": "uint256",
                    "name": "",
                    "type": "uint256"
                }
            ],
            "stateMutability": "view",
            "type": "function"
        },
        {
            "inputs": [
                {
                    "internalType": "uint256",
                    "name": "amount",
                    "type": "uint256"
                }
            ],
            "name": "withdrawStakes",
            "outputs": [],
            "stateMutability": "nonpayable",
            "type": "function"
        },
        {
            "stateMutability": "payable",
            "type": "receive"
        }
    ],
    "bytecode": "6080604052600080546001600160a01b03191673dfe9a918b553d5bfa4aa6a1dba16d5286bf00fa117905534801561003657600080fd5b50600180546001600160a01b03199081163390811783556002805480850182557f405787fa12a823e0f2b7631cc41b3ba8828b3321ca811111fa75cd3aa3bb5ace908101805485169093179092556000805482548087019093559190920180549093166001600160a01b03918216179092558054909116815260036020526040902055610b89806100c86000396000f3fe6080604052600436106100ec5760003560e01c8063857ce1521161008a578063c2b6b58c11610059578063c2b6b58c146103bf578063cd875992146103e8578063cff42dfe146103fd578063f73336001461043057610219565b8063857ce152146103525780638da5cb5b14610380578063a0ca868e14610395578063bf9befb1146103aa57610219565b8063349dc329116100c6578063349dc329146102a6578063375b3c0a146102d7578063410390ec146102fe5780634c85825d1461032857610219565b8063089fe6aa1461021e57806308ef62171461024a5780632f6c0cb51461027857610219565b3661021957600154600160c01b900460ff1615610141576040805162461bcd60e51b815260206004820152600e60248201526d141bdbdb081a5cc818db1bdcd95960921b604482015290519081900360640190fd5b610149610463565b6000546001600160a01b03163314158061016e57506001546001600160a01b03163314155b156101f657336000908152600660205260409020546101f65760045434101561019657600080fd5b600280546001818101835560008390527f405787fa12a823e0f2b7631cc41b3ba8828b3321ca811111fa75cd3aa3bb5ace90910180546001600160a01b0319163317905590546101e5916105f6565b336000908152600360205260409020555b336000908152600660205260409020805434908101909155600580549091019055005b600080fd5b34801561022a57600080fd5b5061023361060d565b6040805161ffff9092168252519081900360200190f35b34801561025657600080fd5b506102766004803603602081101561026d57600080fd5b5035151561061e565b005b34801561028457600080fd5b506102766004803603602081101561029b57600080fd5b503561ffff16610653565b3480156102b257600080fd5b506102bb6106a7565b604080516001600160a01b039092168252519081900360200190f35b3480156102e357600080fd5b506102ec6106b6565b60408051918252519081900360200190f35b34801561030a57600080fd5b506102766004803603602081101561032157600080fd5b50356106bc565b34801561033457600080fd5b506102766004803603602081101561034b57600080fd5b5035610782565b34801561035e57600080fd5b506102766004803603602081101561037557600080fd5b503561ffff1661079e565b34801561038c57600080fd5b506102bb610807565b3480156103a157600080fd5b50610233610816565b3480156103b657600080fd5b506102ec610827565b3480156103cb57600080fd5b506103d461082d565b604080519115158252519081900360200190f35b3480156103f457600080fd5b5061027661083d565b34801561040957600080fd5b506102ec6004803603602081101561042057600080fd5b50356001600160a01b0316610988565b34801561043c57600080fd5b506102766004803603602081101561045357600080fd5b50356001600160a01b0316610ad5565b60055430906000906104809061047a8431346105f6565b906105f6565b11156105f3576005546000906104a49061047a6001600160a01b03851631346105f6565b6001549091506000906104d190612710906104cb908590600160a01b900461ffff16610b0e565b90610b33565b6001549091506000906104f890612710906104cb908690600160b01b900461ffff16610b0e565b9050600061050a8261047a86866105f6565b905060005b60025461ffff821610156105b55760006105696005546104cb6006600060028761ffff168154811061053d57fe5b60009182526020808320909101546001600160a01b031683528201929092526040019020548690610b0e565b9050806006600060028561ffff168154811061058157fe5b60009182526020808320909101546001600160a01b031683528201929092526040019020805490910190555060010161050f565b505060058054909301909255600080546001600160a01b03908116825260066020526040808320805490940190935560015416815220805490910190555b50565b60008282111561060257fe5b508082035b92915050565b600154600160b01b900461ffff1681565b6001546001600160a01b0316331461063557600080fd5b60018054911515600160c01b0260ff60c01b19909216919091179055565b6001546001600160a01b0316331461066a57600080fd5b6101f48161ffff16111561067d57600080fd5b610685610463565b6001805461ffff909216600160b01b0261ffff60b01b19909216919091179055565b6000546001600160a01b031681565b60045481565b806106c633610988565b10156106d157600080fd5b6106d9610463565b336000908152600660205260409020548111156106f557600080fd5b604051339082156108fc029083906000818181858888f19350505050158015610722573d6000803e3d6000fd5b5033600090815260066020526040902080548290038155600580548390039055546105f3573360009081526003602052604090205460028054909190811061076657fe5b600091825260209091200180546001600160a01b031916905550565b6001546001600160a01b0316331461079957600080fd5b600455565b6001546001600160a01b03163314806107c157506000546001600160a01b031633145b6107ca57600080fd5b610fa08161ffff1611156107dd57600080fd5b6107e5610463565b6001805461ffff909216600160a01b0261ffff60a01b19909216919091179055565b6001546001600160a01b031681565b600154600160a01b900461ffff1681565b60055481565b600154600160c01b900460ff1681565b6001546001600160a01b0316331461085457600080fd5b61085c610463565b60005b60025461ffff8216101561096d5760028161ffff168154811061087e57fe5b6000918252602082200154600280546001600160a01b03909216926108fc926006929061ffff87169081106108af57fe5b60009182526020808320909101546001600160a01b03168352820192909252604090810182205490518115909302929091818181858888f193505050501580156108fd573d6000803e3d6000fd5b5060006006600060028461ffff168154811061091557fe5b60009182526020808320909101546001600160a01b031683528201929092526040019020556002805461ffff831690811061094c57fe5b600091825260209091200180546001600160a01b031916905560010161085f565b5060006005556001805460ff60c01b1916600160c01b179055565b600554600090309061099e576000915050610ad0565b60006109bf600554836001600160a01b0316316105f690919063ffffffff16565b600154909150600090610a02906109fb90612710906104cb908690600160a01b810461ffff908116600160b01b90920481169190910116610b0e565b83906105f6565b6005546001600160a01b03871660009081526006602052604081205492935091610a3191906104cb9085610b0e565b6001549091506001600160a01b0387811691161415610a6d57600154610a6b90612710906104cb908690600160b01b900461ffff16610b0e565b015b6000546001600160a01b0387811691161415610aa657600154610aa490612710906104cb908690600160a01b900461ffff16610b0e565b015b6001600160a01b038616600090815260066020526040902054610ac99082610b46565b9450505050505b919050565b6000546001600160a01b03163314610aec57600080fd5b600080546001600160a01b0319166001600160a01b0392909216919091179055565b600082610b1d57506000610607565b5081810281838281610b2b57fe5b041461060757fe5b6000818381610b3e57fe5b049392505050565b8181018281101561060757fefea26469706673582212202cbc193c714a04e00de6aa42e0ec05dbe9cbad79eaec1bcb778fcc754b45940d64736f6c63430007040033",
    "sourcePath": "c:/Users/Nico/Documents/GitHub/QuarkChainPOSWContract/contracts/SideChain/SideChainSmallStakeContract.sol",
    "compiler": {
        "name": "solc",
        "version": "0.7.4+commit.3f05b770"
    },
    "functionHashes": {
        "adjustMinStake(uint256)": "4c85825d",
        "adjustMinerFee(uint16)": "857ce152",
        "adjustPoolFee(uint16)": "2f6c0cb5",
        "changeMiner(address)": "f7333600",
        "changePoolStatus(bool)": "08ef6217",
        "flushContract()": "cd875992",
        "getStakesWithRewards(address)": "cff42dfe",
        "isClosed()": "c2b6b58c",
        "minStake()": "375b3c0a",
        "miner()": "349dc329",
        "minerFee()": "a0ca868e",
        "owner()": "8da5cb5b",
        "poolFee()": "089fe6aa",
        "totalStakes()": "bf9befb1",
        "withdrawStakes(uint256)": "410390ec"
    },
    "gasEstimates": {
        "creation": {
            "codeDepositCost": "590600",
            "executionCost": "147318",
            "totalCost": "737918"
        },
        "external": {
            "adjustMinStake(uint256)": "21118",
            "adjustMinerFee(uint16)": "infinite",
            "adjustPoolFee(uint16)": "infinite",
            "changeMiner(address)": "22001",
            "changePoolStatus(bool)": "21943",
            "flushContract()": "infinite",
            "getStakesWithRewards(address)": "infinite",
            "isClosed()": "1049",
            "minStake()": "1043",
            "miner()": "1060",
            "minerFee()": "1097",
            "owner()": "1082",
            "poolFee()": "1054",
            "totalStakes()": "1087",
            "withdrawStakes(uint256)": "infinite"
        },
        "internal": {
            "calculateRewards()": "infinite"
        }
    }
}