{
    "contractName": "SideChainSmallStakeContract",
    "abi": [
        {
            "inputs": [],
            "payable": false,
            "stateMutability": "nonpayable",
            "type": "constructor"
        },
        {
            "payable": true,
            "stateMutability": "payable",
            "type": "fallback"
        },
        {
            "constant": false,
            "inputs": [
                {
                    "internalType": "uint16",
                    "name": "amount",
                    "type": "uint16"
                }
            ],
            "name": "adjustMinerFee",
            "outputs": [],
            "payable": false,
            "stateMutability": "nonpayable",
            "type": "function"
        },
        {
            "constant": false,
            "inputs": [
                {
                    "internalType": "uint16",
                    "name": "amount",
                    "type": "uint16"
                }
            ],
            "name": "adjustPoolFee",
            "outputs": [],
            "payable": false,
            "stateMutability": "nonpayable",
            "type": "function"
        },
        {
            "constant": false,
            "inputs": [
                {
                    "internalType": "address payable",
                    "name": "_miner",
                    "type": "address"
                }
            ],
            "name": "changeMiner",
            "outputs": [],
            "payable": false,
            "stateMutability": "nonpayable",
            "type": "function"
        },
        {
            "constant": false,
            "inputs": [
                {
                    "internalType": "bool",
                    "name": "status",
                    "type": "bool"
                }
            ],
            "name": "changePoolStatus",
            "outputs": [],
            "payable": false,
            "stateMutability": "nonpayable",
            "type": "function"
        },
        {
            "constant": false,
            "inputs": [],
            "name": "flushContract",
            "outputs": [],
            "payable": false,
            "stateMutability": "nonpayable",
            "type": "function"
        },
        {
            "constant": true,
            "inputs": [],
            "name": "miner",
            "outputs": [
                {
                    "internalType": "address payable",
                    "name": "",
                    "type": "address"
                }
            ],
            "payable": false,
            "stateMutability": "view",
            "type": "function"
        },
        {
            "constant": true,
            "inputs": [],
            "name": "minerFee",
            "outputs": [
                {
                    "internalType": "uint16",
                    "name": "",
                    "type": "uint16"
                }
            ],
            "payable": false,
            "stateMutability": "view",
            "type": "function"
        },
        {
            "constant": true,
            "inputs": [],
            "name": "owner",
            "outputs": [
                {
                    "internalType": "address payable",
                    "name": "",
                    "type": "address"
                }
            ],
            "payable": false,
            "stateMutability": "view",
            "type": "function"
        },
        {
            "constant": true,
            "inputs": [],
            "name": "poolFee",
            "outputs": [
                {
                    "internalType": "uint16",
                    "name": "",
                    "type": "uint16"
                }
            ],
            "payable": false,
            "stateMutability": "view",
            "type": "function"
        },
        {
            "constant": true,
            "inputs": [],
            "name": "totalStakes",
            "outputs": [
                {
                    "internalType": "uint256",
                    "name": "",
                    "type": "uint256"
                }
            ],
            "payable": false,
            "stateMutability": "view",
            "type": "function"
        },
        {
            "constant": false,
            "inputs": [],
            "name": "updateRewards",
            "outputs": [],
            "payable": true,
            "stateMutability": "payable",
            "type": "function"
        },
        {
            "constant": true,
            "inputs": [
                {
                    "internalType": "uint256",
                    "name": "",
                    "type": "uint256"
                }
            ],
            "name": "user",
            "outputs": [
                {
                    "internalType": "address payable",
                    "name": "",
                    "type": "address"
                }
            ],
            "payable": false,
            "stateMutability": "view",
            "type": "function"
        },
        {
            "constant": true,
            "inputs": [
                {
                    "internalType": "address",
                    "name": "",
                    "type": "address"
                }
            ],
            "name": "userStakeWithRewards",
            "outputs": [
                {
                    "internalType": "uint256",
                    "name": "",
                    "type": "uint256"
                }
            ],
            "payable": false,
            "stateMutability": "view",
            "type": "function"
        },
        {
            "constant": false,
            "inputs": [
                {
                    "internalType": "uint256",
                    "name": "amount",
                    "type": "uint256"
                }
            ],
            "name": "withdrawStakes",
            "outputs": [],
            "payable": false,
            "stateMutability": "nonpayable",
            "type": "function"
        }
    ],
    "bytecode": "6080604052600080546001600160a01b03191673dfe9a918b553d5bfa4aa6a1dba16d5286bf00fa117905534801561003657600080fd5b50600180546001600160a01b03191633179055610b4b806100586000396000f3fe6080604052600436106100dd5760003560e01c8063857ce1521161007f578063bf9befb111610059578063bf9befb114610333578063cd8759921461035a578063d2a0e6361461036f578063f7333600146103a2576100dd565b8063857ce152146102db5780638da5cb5b14610309578063a0ca868e1461031e576100dd565b8063349dc329116100bb578063349dc3291461024e5780633e158b0c1461027f578063410390ec14610287578063553275be146102b1576100dd565b8063089fe6aa146101c657806308ef6217146101f25780632f6c0cb514610220575b6100e56103d5565b600154600160c01b900460ff1615610135576040805162461bcd60e51b815260206004820152600e60248201526d141bdbdb081a5cc818db1bdcd95960921b604482015290519081900360640190fd5b336000908152600460205260409020546101a35769043c33c193756480000034101561016057600080fd5b600280546001810182556000919091527f405787fa12a823e0f2b7631cc41b3ba8828b3321ca811111fa75cd3aa3bb5ace0180546001600160a01b031916331790555b336000908152600460205260409020805434908101909155600380549091019055005b3480156101d257600080fd5b506101db610594565b6040805161ffff9092168252519081900360200190f35b3480156101fe57600080fd5b5061021e6004803603602081101561021557600080fd5b503515156105a5565b005b34801561022c57600080fd5b5061021e6004803603602081101561024357600080fd5b503561ffff166105da565b34801561025a57600080fd5b5061026361062e565b604080516001600160a01b039092168252519081900360200190f35b61021e6103d5565b34801561029357600080fd5b5061021e600480360360208110156102aa57600080fd5b503561063d565b3480156102bd57600080fd5b50610263600480360360208110156102d457600080fd5b5035610693565b3480156102e757600080fd5b5061021e600480360360208110156102fe57600080fd5b503561ffff166106ba565b34801561031557600080fd5b5061026361072d565b34801561032a57600080fd5b506101db61073c565b34801561033f57600080fd5b5061034861074d565b60408051918252519081900360200190f35b34801561036657600080fd5b5061021e610753565b34801561037b57600080fd5b506103486004803603602081101561039257600080fd5b50356001600160a01b031661086e565b3480156103ae57600080fd5b5061021e600480360360208110156103c557600080fd5b50356001600160a01b0316610880565b4760035411156103e457600080fd5b60035460009061040a906103fe473463ffffffff6108b916565b9063ffffffff6108b916565b90508015610591576001546000906104429061271090610436908590600160a01b900461ffff16610904565b9063ffffffff61095d16565b6001549091506000906104699061271090610436908690600160b01b900461ffff16610904565b600080546001600160a01b03908116825260046020526040808320805487019055600154909116825281208054830190559091506104bd6104b0848463ffffffff61099f16565b859063ffffffff6108b916565b905060005b60025461ffff8216101561058c57610544670de0b6b3a764000061043684610538600354610436670de0b6b3a76400006004600060028b61ffff168154811061050757fe5b60009182526020808320909101546001600160a01b031683528201929092526040019020549063ffffffff61090416565b9063ffffffff61090416565b6004600060028461ffff168154811061055957fe5b60009182526020808320909101546001600160a01b031683528201929092526040019020805490910190556001016104c2565b505050505b50565b600154600160b01b900461ffff1681565b6001546001600160a01b031633146105bc57600080fd5b60018054911515600160c01b0260ff60c01b19909216919091179055565b6001546001600160a01b031633146105f157600080fd5b6101f48161ffff16111561060457600080fd5b61060c6103d5565b6001805461ffff909216600160b01b0261ffff60b01b19909216919091179055565b6000546001600160a01b031681565b3360009081526004602052604090205481111561065957600080fd5b604051339082156108fc029083906000818181858888f19350505050158015610686573d6000803e3d6000fd5b5060038054919091039055565b600281815481106106a057fe5b6000918252602090912001546001600160a01b0316905081565b6001546001600160a01b03163314806106dd57506000546001600160a01b031633145b6106e657600080fd5b600154610fa0600160a01b90910461ffff16111561070357600080fd5b61070b6103d5565b6001805461ffff909216600160a01b0261ffff60a01b19909216919091179055565b6001546001600160a01b031681565b600154600160a01b900461ffff1681565b60035481565b6001546001600160a01b0316331461076a57600080fd5b6107726103d5565b60005b60025461ffff821610156108585760028161ffff168154811061079457fe5b6000918252602082200154600280546001600160a01b03909216926108fc926004929061ffff87169081106107c557fe5b60009182526020808320909101546001600160a01b03168352820192909252604090810182205490518115909302929091818181858888f19350505050158015610813573d6000803e3d6000fd5b5060006004600060028461ffff168154811061082b57fe5b60009182526020808320909101546001600160a01b03168352820192909252604001902055600101610775565b506001805460ff60c01b1916600160c01b179055565b60046020526000908152604090205481565b6000546001600160a01b0316331461089757600080fd5b600080546001600160a01b0319166001600160a01b0392909216919091179055565b60006108fb83836040518060400160405280601e81526020017f536166654d6174683a207375627472616374696f6e206f766572666c6f7700008152506109f9565b90505b92915050565b600082610913575060006108fe565b8282028284828161092057fe5b04146108fb5760405162461bcd60e51b8152600401808060200182810382526021815260200180610af66021913960400191505060405180910390fd5b60006108fb83836040518060400160405280601a81526020017f536166654d6174683a206469766973696f6e206279207a65726f000000000000815250610a90565b6000828201838110156108fb576040805162461bcd60e51b815260206004820152601b60248201527f536166654d6174683a206164646974696f6e206f766572666c6f770000000000604482015290519081900360640190fd5b60008184841115610a885760405162461bcd60e51b81526004018080602001828103825283818151815260200191508051906020019080838360005b83811015610a4d578181015183820152602001610a35565b50505050905090810190601f168015610a7a5780820380516001836020036101000a031916815260200191505b509250505060405180910390fd5b505050900390565b60008183610adf5760405162461bcd60e51b8152602060048201818152835160248401528351909283926044909101919085019080838360008315610a4d578181015183820152602001610a35565b506000838581610aeb57fe5b049594505050505056fe536166654d6174683a206d756c7469706c69636174696f6e206f766572666c6f77a265627a7a72315820fd8e80e17b51a21325804b1add13b1aa7136cd7a3cd5d79ad7bbb8e0c0142c4664736f6c63430005100032",
    "sourcePath": "c:/Users/Nico/Documents/GitHub/QuarkChainPOSWContract/contracts/SideChain/SideChainSmallStakeContract.sol",
    "compiler": {
        "name": "solc",
        "version": "0.5.16+commit.9c3226ce"
    },
    "functionHashes": {
        "adjustMinerFee(uint16)": "857ce152",
        "adjustPoolFee(uint16)": "2f6c0cb5",
        "changeMiner(address)": "f7333600",
        "changePoolStatus(bool)": "08ef6217",
        "flushContract()": "cd875992",
        "miner()": "349dc329",
        "minerFee()": "a0ca868e",
        "owner()": "8da5cb5b",
        "poolFee()": "089fe6aa",
        "totalStakes()": "bf9befb1",
        "updateRewards()": "3e158b0c",
        "user(uint256)": "553275be",
        "userStakeWithRewards(address)": "d2a0e636",
        "withdrawStakes(uint256)": "410390ec"
    },
    "gasEstimates": {
        "creation": {
            "codeDepositCost": "578200",
            "executionCost": "42284",
            "totalCost": "620484"
        },
        "external": {
            "": "infinite",
            "adjustMinerFee(uint16)": "infinite",
            "adjustPoolFee(uint16)": "infinite",
            "changeMiner(address)": "22001",
            "changePoolStatus(bool)": "21943",
            "flushContract()": "infinite",
            "miner()": "1060",
            "minerFee()": "1097",
            "owner()": "1082",
            "poolFee()": "1054",
            "totalStakes()": "1020",
            "updateRewards()": "infinite",
            "user(uint256)": "2059",
            "userStakeWithRewards(address)": "1190",
            "withdrawStakes(uint256)": "infinite"
        }
    }
}