{
    "contractName": "SideChainSmallStakeContract",
    "abi": [
        {
            "inputs": [],
            "payable": false,
            "stateMutability": "nonpayable",
            "type": "constructor"
        },
        {
            "payable": true,
            "stateMutability": "payable",
            "type": "fallback"
        },
        {
            "constant": false,
            "inputs": [
                {
                    "internalType": "uint16",
                    "name": "amount",
                    "type": "uint16"
                }
            ],
            "name": "adjustMinerFee",
            "outputs": [],
            "payable": false,
            "stateMutability": "nonpayable",
            "type": "function"
        },
        {
            "constant": false,
            "inputs": [
                {
                    "internalType": "uint16",
                    "name": "amount",
                    "type": "uint16"
                }
            ],
            "name": "adjustPoolFee",
            "outputs": [],
            "payable": false,
            "stateMutability": "nonpayable",
            "type": "function"
        },
        {
            "constant": false,
            "inputs": [
                {
                    "internalType": "address payable",
                    "name": "_miner",
                    "type": "address"
                }
            ],
            "name": "changeMiner",
            "outputs": [],
            "payable": false,
            "stateMutability": "nonpayable",
            "type": "function"
        },
        {
            "constant": false,
            "inputs": [
                {
                    "internalType": "bool",
                    "name": "status",
                    "type": "bool"
                }
            ],
            "name": "changePoolStatus",
            "outputs": [],
            "payable": false,
            "stateMutability": "nonpayable",
            "type": "function"
        },
        {
            "constant": false,
            "inputs": [],
            "name": "flushContract",
            "outputs": [],
            "payable": false,
            "stateMutability": "nonpayable",
            "type": "function"
        },
        {
            "constant": true,
            "inputs": [
                {
                    "internalType": "address",
                    "name": "staker",
                    "type": "address"
                }
            ],
            "name": "getStakesWithRewards",
            "outputs": [
                {
                    "internalType": "uint256",
                    "name": "",
                    "type": "uint256"
                }
            ],
            "payable": false,
            "stateMutability": "view",
            "type": "function"
        },
        {
            "constant": true,
            "inputs": [],
            "name": "miner",
            "outputs": [
                {
                    "internalType": "address payable",
                    "name": "",
                    "type": "address"
                }
            ],
            "payable": false,
            "stateMutability": "view",
            "type": "function"
        },
        {
            "constant": true,
            "inputs": [],
            "name": "minerFee",
            "outputs": [
                {
                    "internalType": "uint16",
                    "name": "",
                    "type": "uint16"
                }
            ],
            "payable": false,
            "stateMutability": "view",
            "type": "function"
        },
        {
            "constant": true,
            "inputs": [],
            "name": "owner",
            "outputs": [
                {
                    "internalType": "address payable",
                    "name": "",
                    "type": "address"
                }
            ],
            "payable": false,
            "stateMutability": "view",
            "type": "function"
        },
        {
            "constant": true,
            "inputs": [],
            "name": "poolFee",
            "outputs": [
                {
                    "internalType": "uint16",
                    "name": "",
                    "type": "uint16"
                }
            ],
            "payable": false,
            "stateMutability": "view",
            "type": "function"
        },
        {
            "constant": true,
            "inputs": [],
            "name": "totalStakes",
            "outputs": [
                {
                    "internalType": "uint256",
                    "name": "",
                    "type": "uint256"
                }
            ],
            "payable": false,
            "stateMutability": "view",
            "type": "function"
        },
        {
            "constant": true,
            "inputs": [
                {
                    "internalType": "uint256",
                    "name": "",
                    "type": "uint256"
                }
            ],
            "name": "user",
            "outputs": [
                {
                    "internalType": "address payable",
                    "name": "",
                    "type": "address"
                }
            ],
            "payable": false,
            "stateMutability": "view",
            "type": "function"
        },
        {
            "constant": true,
            "inputs": [
                {
                    "internalType": "address",
                    "name": "",
                    "type": "address"
                }
            ],
            "name": "userStakeWithRewards",
            "outputs": [
                {
                    "internalType": "uint256",
                    "name": "",
                    "type": "uint256"
                }
            ],
            "payable": false,
            "stateMutability": "view",
            "type": "function"
        },
        {
            "constant": false,
            "inputs": [
                {
                    "internalType": "uint256",
                    "name": "amount",
                    "type": "uint256"
                }
            ],
            "name": "withdrawStakes",
            "outputs": [],
            "payable": false,
            "stateMutability": "nonpayable",
            "type": "function"
        }
    ],
    "bytecode": "6080604052600080546001600160a01b03191673dfe9a918b553d5bfa4aa6a1dba16d5286bf00fa117905534801561003657600080fd5b50600180546001600160a01b031990811633908117835560028054808501825560008281527f405787fa12a823e0f2b7631cc41b3ba8828b3321ca811111fa75cd3aa3bb5ace9182018054861690941790935591548154948501909155920180549091166001600160a01b0392909216919091179055610c39806100bb6000396000f3fe6080604052600436106100dd5760003560e01c80638da5cb5b1161007f578063cd87599211610059578063cd87599214610350578063cff42dfe14610365578063d2a0e63614610398578063f7333600146103cb576100dd565b80638da5cb5b146102ff578063a0ca868e14610314578063bf9befb114610329576100dd565b8063349dc329116100bb578063349dc3291461024c578063410390ec1461027d578063553275be146102a7578063857ce152146102d1576100dd565b8063089fe6aa146101c457806308ef6217146101f05780632f6c0cb51461021e575b6100e56103fe565b600154600160c01b900460ff1615610135576040805162461bcd60e51b815260206004820152600e60248201526d141bdbdb081a5cc818db1bdcd95960921b604482015290519081900360640190fd5b336000908152600460205260409020546101a157678ac7230489e8000034101561015e57600080fd5b600280546001810182556000919091527f405787fa12a823e0f2b7631cc41b3ba8828b3321ca811111fa75cd3aa3bb5ace0180546001600160a01b031916331790555b336000908152600460205260409020805434908101909155600380549091019055005b3480156101d057600080fd5b506101d961059a565b6040805161ffff9092168252519081900360200190f35b3480156101fc57600080fd5b5061021c6004803603602081101561021357600080fd5b503515156105ab565b005b34801561022a57600080fd5b5061021c6004803603602081101561024157600080fd5b503561ffff166105e0565b34801561025857600080fd5b50610261610634565b604080516001600160a01b039092168252519081900360200190f35b34801561028957600080fd5b5061021c600480360360208110156102a057600080fd5b5035610643565b3480156102b357600080fd5b50610261600480360360208110156102ca57600080fd5b503561069a565b3480156102dd57600080fd5b5061021c600480360360208110156102f457600080fd5b503561ffff166106c1565b34801561030b57600080fd5b50610261610734565b34801561032057600080fd5b506101d9610743565b34801561033557600080fd5b5061033e610754565b60408051918252519081900360200190f35b34801561035c57600080fd5b5061021c61075a565b34801561037157600080fd5b5061033e6004803603602081101561038857600080fd5b50356001600160a01b0316610875565b3480156103a457600080fd5b5061033e600480360360208110156103bb57600080fd5b50356001600160a01b031661095c565b3480156103d757600080fd5b5061021c600480360360208110156103ee57600080fd5b50356001600160a01b031661096e565b47600354111561040d57600080fd5b60035460009061043390610427473463ffffffff6109a716565b9063ffffffff6109a716565b9050806104405750610598565b6001546000906104709061271090610464908590600160a01b900461ffff166109f2565b9063ffffffff610a4b16565b6001549091506000906104979061271090610464908690600160b01b900461ffff166109f2565b905060006104af82610427868663ffffffff6109a716565b905060005b60025461ffff821610156105605760006105146003546104646004600060028761ffff16815481106104e257fe5b60009182526020808320909101546001600160a01b03168352820192909252604001902054869063ffffffff6109f216565b9050806004600060028561ffff168154811061052c57fe5b60009182526020808320909101546001600160a01b03168352820192909252604001902080549091019055506001016104b4565b5050600080546001600160a01b0390811682526004602052604080832080549095019094556001541681529190912080549091019055505b565b600154600160b01b900461ffff1681565b6001546001600160a01b031633146105c257600080fd5b60018054911515600160c01b0260ff60c01b19909216919091179055565b6001546001600160a01b031633146105f757600080fd5b6101f48161ffff16111561060a57600080fd5b6106126103fe565b6001805461ffff909216600160b01b0261ffff60b01b19909216919091179055565b6000546001600160a01b031681565b8061064d33610875565b101561065857600080fd5b6106606103fe565b604051339082156108fc029083906000818181858888f1935050505015801561068d573d6000803e3d6000fd5b5060038054919091039055565b600281815481106106a757fe5b6000918252602090912001546001600160a01b0316905081565b6001546001600160a01b03163314806106e457506000546001600160a01b031633145b6106ed57600080fd5b600154610fa0600160a01b90910461ffff16111561070a57600080fd5b6107126103fe565b6001805461ffff909216600160a01b0261ffff60a01b19909216919091179055565b6001546001600160a01b031681565b600154600160a01b900461ffff1681565b60035481565b6001546001600160a01b0316331461077157600080fd5b6107796103fe565b60005b60025461ffff8216101561085f5760028161ffff168154811061079b57fe5b6000918252602082200154600280546001600160a01b03909216926108fc926004929061ffff87169081106107cc57fe5b60009182526020808320909101546001600160a01b03168352820192909252604090810182205490518115909302929091818181858888f1935050505015801561081a573d6000803e3d6000fd5b5060006004600060028461ffff168154811061083257fe5b60009182526020808320909101546001600160a01b0316835282019290925260400190205560010161077c565b506001805460ff60c01b1916600160c01b179055565b60006003546000141561088a57506000610957565b60006108a1600354476109a790919063ffffffff16565b6001549091506000906108f0906108e39061271090610464908690600160a01b810461ffff908116600160b01b9092048116919091011663ffffffff6109f216565b839063ffffffff6109a716565b6003546001600160a01b038616600090815260046020526040812054929350916109259190610464908563ffffffff6109f216565b6001600160a01b038616600090815260046020526040902054909150610951908263ffffffff610a8d16565b93505050505b919050565b60046020526000908152604090205481565b6000546001600160a01b0316331461098557600080fd5b600080546001600160a01b0319166001600160a01b0392909216919091179055565b60006109e983836040518060400160405280601e81526020017f536166654d6174683a207375627472616374696f6e206f766572666c6f770000815250610ae7565b90505b92915050565b600082610a01575060006109ec565b82820282848281610a0e57fe5b04146109e95760405162461bcd60e51b8152600401808060200182810382526021815260200180610be46021913960400191505060405180910390fd5b60006109e983836040518060400160405280601a81526020017f536166654d6174683a206469766973696f6e206279207a65726f000000000000815250610b7e565b6000828201838110156109e9576040805162461bcd60e51b815260206004820152601b60248201527f536166654d6174683a206164646974696f6e206f766572666c6f770000000000604482015290519081900360640190fd5b60008184841115610b765760405162461bcd60e51b81526004018080602001828103825283818151815260200191508051906020019080838360005b83811015610b3b578181015183820152602001610b23565b50505050905090810190601f168015610b685780820380516001836020036101000a031916815260200191505b509250505060405180910390fd5b505050900390565b60008183610bcd5760405162461bcd60e51b8152602060048201818152835160248401528351909283926044909101919085019080838360008315610b3b578181015183820152602001610b23565b506000838581610bd957fe5b049594505050505056fe536166654d6174683a206d756c7469706c69636174696f6e206f766572666c6f77a265627a7a723158201a6b70b9ea4062693843e0f9386accd73e3a0a93aab973846801f5979399d8c864736f6c63430005100032",
    "sourcePath": "c:/Users/Nico/Documents/GitHub/QuarkChainPOSWContract/contracts/SideChain/SideChainSmallStakeContract.sol",
    "compiler": {
        "name": "solc",
        "version": "0.5.16+commit.9c3226ce"
    },
    "functionHashes": {
        "adjustMinerFee(uint16)": "857ce152",
        "adjustPoolFee(uint16)": "2f6c0cb5",
        "changeMiner(address)": "f7333600",
        "changePoolStatus(bool)": "08ef6217",
        "flushContract()": "cd875992",
        "getStakesWithRewards(address)": "cff42dfe",
        "miner()": "349dc329",
        "minerFee()": "a0ca868e",
        "owner()": "8da5cb5b",
        "poolFee()": "089fe6aa",
        "totalStakes()": "bf9befb1",
        "user(uint256)": "553275be",
        "userStakeWithRewards(address)": "d2a0e636",
        "withdrawStakes(uint256)": "410390ec"
    },
    "gasEstimates": {
        "creation": {
            "codeDepositCost": "625800",
            "executionCost": "126487",
            "totalCost": "752287"
        },
        "external": {
            "": "infinite",
            "adjustMinerFee(uint16)": "infinite",
            "adjustPoolFee(uint16)": "infinite",
            "changeMiner(address)": "22001",
            "changePoolStatus(bool)": "21943",
            "flushContract()": "infinite",
            "getStakesWithRewards(address)": "infinite",
            "miner()": "1060",
            "minerFee()": "1075",
            "owner()": "1060",
            "poolFee()": "1054",
            "totalStakes()": "1065",
            "user(uint256)": "2037",
            "userStakeWithRewards(address)": "1190",
            "withdrawStakes(uint256)": "infinite"
        },
        "internal": {
            "updateRewards()": "infinite"
        }
    }
}