{
    "contractName": "SmallStakeContract",
    "abi": [
        {
            "inputs": [],
            "payable": false,
            "stateMutability": "nonpayable",
            "type": "constructor"
        },
        {
            "payable": true,
            "stateMutability": "payable",
            "type": "fallback"
        },
        {
            "constant": false,
            "inputs": [
                {
                    "internalType": "uint16",
                    "name": "amount",
                    "type": "uint16"
                }
            ],
            "name": "adjustMinerFee",
            "outputs": [],
            "payable": false,
            "stateMutability": "nonpayable",
            "type": "function"
        },
        {
            "constant": false,
            "inputs": [
                {
                    "internalType": "uint16",
                    "name": "amount",
                    "type": "uint16"
                }
            ],
            "name": "adjustPoolFee",
            "outputs": [],
            "payable": false,
            "stateMutability": "nonpayable",
            "type": "function"
        },
        {
            "constant": false,
            "inputs": [
                {
                    "internalType": "address payable",
                    "name": "_miner",
                    "type": "address"
                }
            ],
            "name": "changeMiner",
            "outputs": [],
            "payable": false,
            "stateMutability": "nonpayable",
            "type": "function"
        },
        {
            "constant": false,
            "inputs": [
                {
                    "internalType": "bool",
                    "name": "status",
                    "type": "bool"
                }
            ],
            "name": "changePoolStatus",
            "outputs": [],
            "payable": false,
            "stateMutability": "nonpayable",
            "type": "function"
        },
        {
            "constant": false,
            "inputs": [],
            "name": "flushContract",
            "outputs": [],
            "payable": false,
            "stateMutability": "nonpayable",
            "type": "function"
        },
        {
            "constant": true,
            "inputs": [],
            "name": "miner",
            "outputs": [
                {
                    "internalType": "address payable",
                    "name": "",
                    "type": "address"
                }
            ],
            "payable": false,
            "stateMutability": "view",
            "type": "function"
        },
        {
            "constant": true,
            "inputs": [],
            "name": "minerFee",
            "outputs": [
                {
                    "internalType": "uint16",
                    "name": "",
                    "type": "uint16"
                }
            ],
            "payable": false,
            "stateMutability": "view",
            "type": "function"
        },
        {
            "constant": true,
            "inputs": [],
            "name": "owner",
            "outputs": [
                {
                    "internalType": "address payable",
                    "name": "",
                    "type": "address"
                }
            ],
            "payable": false,
            "stateMutability": "view",
            "type": "function"
        },
        {
            "constant": true,
            "inputs": [],
            "name": "poolFee",
            "outputs": [
                {
                    "internalType": "uint16",
                    "name": "",
                    "type": "uint16"
                }
            ],
            "payable": false,
            "stateMutability": "view",
            "type": "function"
        },
        {
            "constant": true,
            "inputs": [],
            "name": "totalStakes",
            "outputs": [
                {
                    "internalType": "uint256",
                    "name": "",
                    "type": "uint256"
                }
            ],
            "payable": false,
            "stateMutability": "view",
            "type": "function"
        },
        {
            "constant": false,
            "inputs": [],
            "name": "updateRewards",
            "outputs": [],
            "payable": false,
            "stateMutability": "nonpayable",
            "type": "function"
        },
        {
            "constant": true,
            "inputs": [
                {
                    "internalType": "uint256",
                    "name": "",
                    "type": "uint256"
                }
            ],
            "name": "user",
            "outputs": [
                {
                    "internalType": "address payable",
                    "name": "",
                    "type": "address"
                }
            ],
            "payable": false,
            "stateMutability": "view",
            "type": "function"
        },
        {
            "constant": true,
            "inputs": [
                {
                    "internalType": "address",
                    "name": "",
                    "type": "address"
                }
            ],
            "name": "userStakeWithRewards",
            "outputs": [
                {
                    "internalType": "uint256",
                    "name": "",
                    "type": "uint256"
                }
            ],
            "payable": false,
            "stateMutability": "view",
            "type": "function"
        },
        {
            "constant": false,
            "inputs": [
                {
                    "internalType": "uint256",
                    "name": "amount",
                    "type": "uint256"
                }
            ],
            "name": "withdrawStakes",
            "outputs": [],
            "payable": false,
            "stateMutability": "nonpayable",
            "type": "function"
        }
    ],
    "bytecode": "6080604052600080546001600160a01b03191673dfe9a918b553d5bfa4aa6a1dba16d5286bf00fa117905534801561003657600080fd5b50600180546001600160a01b03191633179055610b40806100586000396000f3fe6080604052600436106100dd5760003560e01c8063857ce1521161007f578063bf9befb111610059578063bf9befb114610340578063cd87599214610367578063d2a0e6361461037c578063f7333600146103af576100dd565b8063857ce152146102e85780638da5cb5b14610316578063a0ca868e1461032b576100dd565b8063349dc329116100bb578063349dc3291461024e5780633e158b0c1461027f578063410390ec14610294578063553275be146102be576100dd565b8063089fe6aa146101c657806308ef6217146101f25780632f6c0cb514610220575b6100e56103e2565b600154600160c01b900460ff1615610135576040805162461bcd60e51b815260206004820152600e60248201526d141bdbdb081a5cc818db1bdcd95960921b604482015290519081900360640190fd5b336000908152600460205260409020546101a35769043c33c193756480000034101561016057600080fd5b600280546001810182556000919091527f405787fa12a823e0f2b7631cc41b3ba8828b3321ca811111fa75cd3aa3bb5ace0180546001600160a01b031916331790555b336000908152600460205260409020805434908101909155600380549091019055005b3480156101d257600080fd5b506101db610592565b6040805161ffff9092168252519081900360200190f35b3480156101fe57600080fd5b5061021e6004803603602081101561021557600080fd5b503515156105a3565b005b34801561022c57600080fd5b5061021e6004803603602081101561024357600080fd5b503561ffff166105d8565b34801561025a57600080fd5b5061026361062c565b604080516001600160a01b039092168252519081900360200190f35b34801561028b57600080fd5b5061021e6103e2565b3480156102a057600080fd5b5061021e600480360360208110156102b757600080fd5b503561063b565b3480156102ca57600080fd5b50610263600480360360208110156102e157600080fd5b5035610688565b3480156102f457600080fd5b5061021e6004803603602081101561030b57600080fd5b503561ffff166106af565b34801561032257600080fd5b50610263610722565b34801561033757600080fd5b506101db610731565b34801561034c57600080fd5b50610355610742565b60408051918252519081900360200190f35b34801561037357600080fd5b5061021e610748565b34801561038857600080fd5b506103556004803603602081101561039f57600080fd5b50356001600160a01b0316610863565b3480156103bb57600080fd5b5061021e600480360360208110156103d257600080fd5b50356001600160a01b0316610875565b4760035411156103f157600080fd5b6000610408600354476108ae90919063ffffffff16565b9050801561058f576001546000906104409061271090610434908590600160a01b900461ffff166108f9565b9063ffffffff61095216565b6001549091506000906104679061271090610434908690600160b01b900461ffff166108f9565b600080546001600160a01b03908116825260046020526040808320805487019055600154909116825281208054830190559091506104bb6104ae848463ffffffff61099416565b859063ffffffff6108ae16565b905060005b60025461ffff8216101561058a57610542670de0b6b3a764000061043484610536600354610434670de0b6b3a76400006004600060028b61ffff168154811061050557fe5b60009182526020808320909101546001600160a01b031683528201929092526040019020549063ffffffff6108f916565b9063ffffffff6108f916565b6004600060028461ffff168154811061055757fe5b60009182526020808320909101546001600160a01b031683528201929092526040019020805490910190556001016104c0565b505050505b50565b600154600160b01b900461ffff1681565b6001546001600160a01b031633146105ba57600080fd5b60018054911515600160c01b0260ff60c01b19909216919091179055565b6001546001600160a01b031633146105ef57600080fd5b6101f48161ffff16111561060257600080fd5b61060a6103e2565b6001805461ffff909216600160b01b0261ffff60b01b19909216919091179055565b6000546001600160a01b031681565b3360009081526004602052604090205481111561065757600080fd5b604051339082156108fc029083906000818181858888f19350505050158015610684573d6000803e3d6000fd5b5050565b6002818154811061069557fe5b6000918252602090912001546001600160a01b0316905081565b6001546001600160a01b03163314806106d257506000546001600160a01b031633145b6106db57600080fd5b600154610fa0600160a01b90910461ffff1611156106f857600080fd5b6107006103e2565b6001805461ffff909216600160a01b0261ffff60a01b19909216919091179055565b6001546001600160a01b031681565b600154600160a01b900461ffff1681565b60035481565b6001546001600160a01b0316331461075f57600080fd5b6107676103e2565b60005b60025461ffff8216101561084d5760028161ffff168154811061078957fe5b6000918252602082200154600280546001600160a01b03909216926108fc926004929061ffff87169081106107ba57fe5b60009182526020808320909101546001600160a01b03168352820192909252604090810182205490518115909302929091818181858888f19350505050158015610808573d6000803e3d6000fd5b5060006004600060028461ffff168154811061082057fe5b60009182526020808320909101546001600160a01b0316835282019290925260400190205560010161076a565b506001805460ff60c01b1916600160c01b179055565b60046020526000908152604090205481565b6000546001600160a01b0316331461088c57600080fd5b600080546001600160a01b0319166001600160a01b0392909216919091179055565b60006108f083836040518060400160405280601e81526020017f536166654d6174683a207375627472616374696f6e206f766572666c6f7700008152506109ee565b90505b92915050565b600082610908575060006108f3565b8282028284828161091557fe5b04146108f05760405162461bcd60e51b8152600401808060200182810382526021815260200180610aeb6021913960400191505060405180910390fd5b60006108f083836040518060400160405280601a81526020017f536166654d6174683a206469766973696f6e206279207a65726f000000000000815250610a85565b6000828201838110156108f0576040805162461bcd60e51b815260206004820152601b60248201527f536166654d6174683a206164646974696f6e206f766572666c6f770000000000604482015290519081900360640190fd5b60008184841115610a7d5760405162461bcd60e51b81526004018080602001828103825283818151815260200191508051906020019080838360005b83811015610a42578181015183820152602001610a2a565b50505050905090810190601f168015610a6f5780820380516001836020036101000a031916815260200191505b509250505060405180910390fd5b505050900390565b60008183610ad45760405162461bcd60e51b8152602060048201818152835160248401528351909283926044909101919085019080838360008315610a42578181015183820152602001610a2a565b506000838581610ae057fe5b049594505050505056fe536166654d6174683a206d756c7469706c69636174696f6e206f766572666c6f77a265627a7a72315820436b8a25e5f121202d3b586bbf3cf74b47a8ef259056f83f39c16c9662b9ab7f64736f6c63430005100032",
    "sourcePath": "c:/Users/Nico/Documents/GitHub/QuarkChainPOSWContract/contracts/SideChain/SideChainSmallStakeContract.sol",
    "compiler": {
        "name": "solc",
        "version": "0.5.16+commit.9c3226ce"
    },
    "functionHashes": {
        "adjustMinerFee(uint16)": "857ce152",
        "adjustPoolFee(uint16)": "2f6c0cb5",
        "changeMiner(address)": "f7333600",
        "changePoolStatus(bool)": "08ef6217",
        "flushContract()": "cd875992",
        "miner()": "349dc329",
        "minerFee()": "a0ca868e",
        "owner()": "8da5cb5b",
        "poolFee()": "089fe6aa",
        "totalStakes()": "bf9befb1",
        "updateRewards()": "3e158b0c",
        "user(uint256)": "553275be",
        "userStakeWithRewards(address)": "d2a0e636",
        "withdrawStakes(uint256)": "410390ec"
    },
    "gasEstimates": {
        "creation": {
            "codeDepositCost": "576000",
            "executionCost": "42277",
            "totalCost": "618277"
        },
        "external": {
            "": "infinite",
            "adjustMinerFee(uint16)": "infinite",
            "adjustPoolFee(uint16)": "infinite",
            "changeMiner(address)": "22001",
            "changePoolStatus(bool)": "21943",
            "flushContract()": "infinite",
            "miner()": "1060",
            "minerFee()": "1097",
            "owner()": "1082",
            "poolFee()": "1054",
            "totalStakes()": "1020",
            "updateRewards()": "infinite",
            "user(uint256)": "2059",
            "userStakeWithRewards(address)": "1190",
            "withdrawStakes(uint256)": "infinite"
        }
    }
}