{
    "contractName": "test",
    "abi": [
        {
            "inputs": [],
            "stateMutability": "nonpayable",
            "type": "constructor"
        },
        {
            "inputs": [],
            "name": "getAddress",
            "outputs": [
                {
                    "internalType": "address",
                    "name": "",
                    "type": "address"
                }
            ],
            "stateMutability": "view",
            "type": "function"
        },
        {
            "inputs": [],
            "name": "getBalance",
            "outputs": [
                {
                    "internalType": "uint256",
                    "name": "",
                    "type": "uint256"
                }
            ],
            "stateMutability": "view",
            "type": "function"
        },
        {
            "inputs": [],
            "name": "getBalance1",
            "outputs": [
                {
                    "internalType": "uint256",
                    "name": "",
                    "type": "uint256"
                }
            ],
            "stateMutability": "view",
            "type": "function"
        },
        {
            "inputs": [],
            "name": "withdraw",
            "outputs": [],
            "stateMutability": "nonpayable",
            "type": "function"
        },
        {
            "stateMutability": "payable",
            "type": "receive"
        }
    ],
    "bytecode": "608060405234801561001057600080fd5b50610131806100206000396000f3fe608060405260043610603d5760003560e01c806312065fe014604857806338cc483114606c5780633ccfd60b14609a57806341aec5381460ae576043565b36604357005b600080fd5b348015605357600080fd5b50605a60c0565b60408051918252519081900360200190f35b348015607757600080fd5b50607e60c4565b604080516001600160a01b039092168252519081900360200190f35b34801560a557600080fd5b5060ac60c8565b005b34801560b957600080fd5b50605a60f6565b4790565b3090565b60405133904780156108fc02916000818181858888f1935050505015801560f3573d6000803e3d6000fd5b50565b30319056fea26469706673582212207966ff1dcf7e58f405d4f9e5374e32cc2d4110a51d56e8b633afb6816557953564736f6c63430007040033",
    "sourcePath": "c:/Users/Nico/Documents/GitHub/QuarkChainPOSWContract/contracts/SideChain/test.sol",
    "compiler": {
        "name": "solc",
        "version": "0.7.4+commit.3f05b770"
    },
    "functionHashes": {
        "getAddress()": "38cc4831",
        "getBalance()": "12065fe0",
        "getBalance1()": "41aec538",
        "withdraw()": "3ccfd60b"
    },
    "gasEstimates": {
        "creation": {
            "codeDepositCost": "61000",
            "executionCost": "111",
            "totalCost": "61111"
        },
        "external": {
            "getAddress()": "218",
            "getBalance()": "178",
            "getBalance1()": "941",
            "withdraw()": "infinite"
        }
    }
}